{
  "contractName": "FileStorage",
  "abi": [
    {
      "anonymous": false,
      "inputs": [
        {
          "indexed": true,
          "internalType": "uint256",
          "name": "fileId",
          "type": "uint256"
        },
        {
          "indexed": false,
          "internalType": "string",
          "name": "fileHash",
          "type": "string"
        },
        {
          "indexed": false,
          "internalType": "uint256",
          "name": "timestamp",
          "type": "uint256"
        },
        {
          "indexed": false,
          "internalType": "string",
          "name": "userId",
          "type": "string"
        }
      ],
      "name": "FileAdded",
      "type": "event"
    },
    {
      "inputs": [
        {
          "internalType": "uint256",
          "name": "",
          "type": "uint256"
        }
      ],
      "name": "files",
      "outputs": [
        {
          "internalType": "string",
          "name": "fileHash",
          "type": "string"
        },
        {
          "internalType": "uint256",
          "name": "timestamp",
          "type": "uint256"
        },
        {
          "internalType": "string",
          "name": "userId",
          "type": "string"
        }
      ],
      "stateMutability": "view",
      "type": "function",
      "constant": true
    },
    {
      "inputs": [
        {
          "internalType": "string",
          "name": "_fileHash",
          "type": "string"
        },
        {
          "internalType": "string",
          "name": "_userId",
          "type": "string"
        }
      ],
      "name": "addFile",
      "outputs": [],
      "stateMutability": "nonpayable",
      "type": "function"
    },
    {
      "inputs": [
        {
          "internalType": "uint256",
          "name": "_fileId",
          "type": "uint256"
        }
      ],
      "name": "getFile",
      "outputs": [
        {
          "internalType": "string",
          "name": "",
          "type": "string"
        },
        {
          "internalType": "uint256",
          "name": "",
          "type": "uint256"
        },
        {
          "internalType": "string",
          "name": "",
          "type": "string"
        }
      ],
      "stateMutability": "view",
      "type": "function",
      "constant": true
    },
    {
      "inputs": [],
      "name": "getFileCount",
      "outputs": [
        {
          "internalType": "uint256",
          "name": "",
          "type": "uint256"
        }
      ],
      "stateMutability": "view",
      "type": "function",
      "constant": true
    }
  ],
  "bytecode": "0x608060405234801561000f575f80fd5b50610bbb8061001d5f395ff3fe608060405234801561000f575f80fd5b506004361061004a575f3560e01c8063248bfc3b1461004e5780632bfda3131461006a578063bab50cc91461009c578063f4c714b4146100ba575b5f80fd5b6100686004803603810190610063919061060e565b6100ec565b005b610084600480360381019061007f91906106b7565b6101b9565b6040516100939392919061076b565b60405180910390f35b6100a4610376565b6040516100b191906107ae565b60405180910390f35b6100d460048036038101906100cf91906106b7565b610381565b6040516100e39392919061076b565b60405180910390f35b5f4290505f604051806060016040528085815260200183815260200184815250908060018154018082558091505060019003905f5260205f2090600302015f909190919091505f820151815f01908161014591906109c1565b5060208201518160010155604082015181600201908161016591906109c1565b50505060015f805490506101799190610abd565b7fdeddea1430d0c2e9ddef4c6ff3e4263b569542bf10dd2a82fb10a4465e112ae98483856040516101ac9392919061076b565b60405180910390a2505050565b60605f60605f805490508410610204576040517f08c379a00000000000000000000000000000000000000000000000000000000081526004016101fb90610b3a565b60405180910390fd5b5f80858154811061021857610217610b58565b5b905f5260205f2090600302016040518060600160405290815f8201805461023e906107f4565b80601f016020809104026020016040519081016040528092919081815260200182805461026a906107f4565b80156102b55780601f1061028c576101008083540402835291602001916102b5565b820191905f5260205f20905b81548152906001019060200180831161029857829003601f168201915b50505050508152602001600182015481526020016002820180546102d8906107f4565b80601f0160208091040260200160405190810160405280929190818152602001828054610304906107f4565b801561034f5780601f106103265761010080835404028352916020019161034f565b820191905f5260205f20905b81548152906001019060200180831161033257829003601f168201915b5050505050815250509050805f015181602001518260400151935093509350509193909250565b5f8080549050905090565b5f818154811061038f575f80fd5b905f5260205f2090600302015f91509050805f0180546103ae906107f4565b80601f01602080910402602001604051908101604052809291908181526020018280546103da906107f4565b80156104255780601f106103fc57610100808354040283529160200191610425565b820191905f5260205f20905b81548152906001019060200180831161040857829003601f168201915b505050505090806001015490806002018054610440906107f4565b80601f016020809104026020016040519081016040528092919081815260200182805461046c906107f4565b80156104b75780601f1061048e576101008083540402835291602001916104b7565b820191905f5260205f20905b81548152906001019060200180831161049a57829003601f168201915b5050505050905083565b5f604051905090565b5f80fd5b5f80fd5b5f80fd5b5f80fd5b5f601f19601f8301169050919050565b7f4e487b71000000000000000000000000000000000000000000000000000000005f52604160045260245ffd5b610520826104da565b810181811067ffffffffffffffff8211171561053f5761053e6104ea565b5b80604052505050565b5f6105516104c1565b905061055d8282610517565b919050565b5f67ffffffffffffffff82111561057c5761057b6104ea565b5b610585826104da565b9050602081019050919050565b828183375f83830152505050565b5f6105b26105ad84610562565b610548565b9050828152602081018484840111156105ce576105cd6104d6565b5b6105d9848285610592565b509392505050565b5f82601f8301126105f5576105f46104d2565b5b81356106058482602086016105a0565b91505092915050565b5f8060408385031215610624576106236104ca565b5b5f83013567ffffffffffffffff811115610641576106406104ce565b5b61064d858286016105e1565b925050602083013567ffffffffffffffff81111561066e5761066d6104ce565b5b61067a858286016105e1565b9150509250929050565b5f819050919050565b61069681610684565b81146106a0575f80fd5b50565b5f813590506106b18161068d565b92915050565b5f602082840312156106cc576106cb6104ca565b5b5f6106d9848285016106a3565b91505092915050565b5f81519050919050565b5f82825260208201905092915050565b5f5b838110156107195780820151818401526020810190506106fe565b5f8484015250505050565b5f61072e826106e2565b61073881856106ec565b93506107488185602086016106fc565b610751816104da565b840191505092915050565b61076581610684565b82525050565b5f6060820190508181035f8301526107838186610724565b9050610792602083018561075c565b81810360408301526107a48184610724565b9050949350505050565b5f6020820190506107c15f83018461075c565b92915050565b7f4e487b71000000000000000000000000000000000000000000000000000000005f52602260045260245ffd5b5f600282049050600182168061080b57607f821691505b60208210810361081e5761081d6107c7565b5b50919050565b5f819050815f5260205f209050919050565b5f6020601f8301049050919050565b5f82821b905092915050565b5f600883026108807fffffffffffffffffffffffffffffffffffffffffffffffffffffffffffffffff82610845565b61088a8683610845565b95508019841693508086168417925050509392505050565b5f819050919050565b5f6108c56108c06108bb84610684565b6108a2565b610684565b9050919050565b5f819050919050565b6108de836108ab565b6108f26108ea826108cc565b848454610851565b825550505050565b5f90565b6109066108fa565b6109118184846108d5565b505050565b5b81811015610934576109295f826108fe565b600181019050610917565b5050565b601f8211156109795761094a81610824565b61095384610836565b81016020851015610962578190505b61097661096e85610836565b830182610916565b50505b505050565b5f82821c905092915050565b5f6109995f198460080261097e565b1980831691505092915050565b5f6109b1838361098a565b9150826002028217905092915050565b6109ca826106e2565b67ffffffffffffffff8111156109e3576109e26104ea565b5b6109ed82546107f4565b6109f8828285610938565b5f60209050601f831160018114610a29575f8415610a17578287015190505b610a2185826109a6565b865550610a88565b601f198416610a3786610824565b5f5b82811015610a5e57848901518255600182019150602085019450602081019050610a39565b86831015610a7b5784890151610a77601f89168261098a565b8355505b6001600288020188555050505b505050505050565b7f4e487b71000000000000000000000000000000000000000000000000000000005f52601160045260245ffd5b5f610ac782610684565b9150610ad283610684565b9250828203905081811115610aea57610ae9610a90565b5b92915050565b7f46696c6520646f6573206e6f742065786973742e0000000000000000000000005f82015250565b5f610b246014836106ec565b9150610b2f82610af0565b602082019050919050565b5f6020820190508181035f830152610b5181610b18565b9050919050565b7f4e487b71000000000000000000000000000000000000000000000000000000005f52603260045260245ffdfea264697066735822122071f653653163d244fa5de279979ca417a022492e361e0824eb21c8eb5b7a9f1a64736f6c63430008150033",
  "immutableReferences": {},
  "source": "// SPDX-License-Identifier: MIT\r\npragma solidity ^0.8.0;\r\n\r\ncontract FileStorage {\r\n    struct File {\r\n        string fileHash;\r\n        uint256 timestamp;\r\n        string userId;\r\n    }\r\n\r\n    File[] public files;\r\n\r\n    event FileAdded(uint256 indexed fileId, string fileHash, uint256 timestamp, string userId);\r\n\r\n    function addFile(string memory _fileHash, string memory _userId) public {\r\n        uint256 timestamp = block.timestamp;\r\n        files.push(File(_fileHash, timestamp, _userId));\r\n        emit FileAdded(files.length - 1, _fileHash, timestamp, _userId);\r\n    }\r\n\r\n    function getFile(uint256 _fileId) public view returns (string memory, uint256, string memory) {\r\n        require(_fileId < files.length, \"File does not exist.\");\r\n        File memory file = files[_fileId];\r\n        return (file.fileHash, file.timestamp, file.userId);\r\n    }\r\n\r\n    function getFileCount() public view returns (uint256) {\r\n        return files.length;\r\n    }\r\n}",
  "sourcePath": "D:\\OS project\\FileStorageProject\\contracts\\FileStorage.sol",
  "compiler": {
    "name": "solc",
    "version": "0.8.21+commit.d9974bed.Emscripten.clang"
  },
  "schemaVersion": "3.4.16",
  "updatedAt": "2025-03-24T15:53:12.981Z",
  "networkType": "ethereum",
  "devdoc": {
    "kind": "dev",
    "methods": {},
    "version": 1
  },
  "userdoc": {
    "kind": "user",
    "methods": {},
    "version": 1
  }
}